{
  "_format": "hh-sol-artifact-1",
  "contractName": "StakingPool",
  "sourceName": "contracts/Staking.sol",
  "abi": [
    {
      "inputs": [],
      "stateMutability": "nonpayable",
      "type": "constructor"
    },
    {
      "anonymous": false,
      "inputs": [
        {
          "indexed": true,
          "internalType": "address",
          "name": "previousOwner",
          "type": "address"
        },
        {
          "indexed": true,
          "internalType": "address",
          "name": "newOwner",
          "type": "address"
        }
      ],
      "name": "OwnershipTransferred",
      "type": "event"
    },
    {
      "anonymous": false,
      "inputs": [
        {
          "indexed": true,
          "internalType": "address",
          "name": "token",
          "type": "address"
        },
        {
          "indexed": false,
          "internalType": "uint256",
          "name": "totalDistribution",
          "type": "uint256"
        },
        {
          "indexed": false,
          "internalType": "uint256",
          "name": "poolDuration",
          "type": "uint256"
        },
        {
          "indexed": false,
          "internalType": "uint256",
          "name": "lockinDuration",
          "type": "uint256"
        }
      ],
      "name": "PoolCreated",
      "type": "event"
    },
    {
      "anonymous": false,
      "inputs": [
        {
          "indexed": true,
          "internalType": "uint256",
          "name": "stakerId",
          "type": "uint256"
        },
        {
          "indexed": true,
          "internalType": "address",
          "name": "user",
          "type": "address"
        },
        {
          "indexed": false,
          "internalType": "uint256",
          "name": "reward",
          "type": "uint256"
        }
      ],
      "name": "RewardClaimed",
      "type": "event"
    },
    {
      "anonymous": false,
      "inputs": [
        {
          "indexed": true,
          "internalType": "uint256",
          "name": "stakerId",
          "type": "uint256"
        },
        {
          "indexed": true,
          "internalType": "address",
          "name": "user",
          "type": "address"
        },
        {
          "indexed": false,
          "internalType": "uint256",
          "name": "amount",
          "type": "uint256"
        }
      ],
      "name": "Staked",
      "type": "event"
    },
    {
      "anonymous": false,
      "inputs": [
        {
          "indexed": true,
          "internalType": "uint256",
          "name": "stakerId",
          "type": "uint256"
        },
        {
          "indexed": true,
          "internalType": "address",
          "name": "user",
          "type": "address"
        },
        {
          "indexed": false,
          "internalType": "uint256",
          "name": "amount",
          "type": "uint256"
        }
      ],
      "name": "Unstaked",
      "type": "event"
    },
    {
      "inputs": [
        {
          "internalType": "uint256",
          "name": "_stakerId",
          "type": "uint256"
        }
      ],
      "name": "calculateReward",
      "outputs": [
        {
          "internalType": "uint256",
          "name": "",
          "type": "uint256"
        }
      ],
      "stateMutability": "view",
      "type": "function"
    },
    {
      "inputs": [
        {
          "internalType": "uint256",
          "name": "_stakerId",
          "type": "uint256"
        }
      ],
      "name": "claimRewards",
      "outputs": [],
      "stateMutability": "nonpayable",
      "type": "function"
    },
    {
      "inputs": [
        {
          "internalType": "address",
          "name": "_stakingToken",
          "type": "address"
        },
        {
          "internalType": "uint256",
          "name": "_totalDistributionAmount",
          "type": "uint256"
        },
        {
          "internalType": "uint256",
          "name": "_poolDuration",
          "type": "uint256"
        },
        {
          "internalType": "uint256",
          "name": "_lockinDuration",
          "type": "uint256"
        }
      ],
      "name": "createPool",
      "outputs": [],
      "stateMutability": "nonpayable",
      "type": "function"
    },
    {
      "inputs": [],
      "name": "currentHourlyRewardEmission",
      "outputs": [
        {
          "internalType": "uint256",
          "name": "",
          "type": "uint256"
        }
      ],
      "stateMutability": "view",
      "type": "function"
    },
    {
      "inputs": [],
      "name": "getActiveStakers",
      "outputs": [
        {
          "components": [
            {
              "internalType": "uint256",
              "name": "stakerId",
              "type": "uint256"
            },
            {
              "internalType": "address",
              "name": "stakerAddress",
              "type": "address"
            },
            {
              "internalType": "uint256",
              "name": "amountStaked",
              "type": "uint256"
            },
            {
              "internalType": "uint256",
              "name": "rewardDebt",
              "type": "uint256"
            },
            {
              "internalType": "uint256",
              "name": "rewardPending",
              "type": "uint256"
            },
            {
              "internalType": "uint256",
              "name": "stakingTimestamp",
              "type": "uint256"
            },
            {
              "internalType": "bool",
              "name": "isActive",
              "type": "bool"
            }
          ],
          "internalType": "struct StakingPool.Staker[]",
          "name": "",
          "type": "tuple[]"
        }
      ],
      "stateMutability": "view",
      "type": "function"
    },
    {
      "inputs": [],
      "name": "getAllStaker",
      "outputs": [
        {
          "components": [
            {
              "internalType": "uint256",
              "name": "stakerId",
              "type": "uint256"
            },
            {
              "internalType": "address",
              "name": "stakerAddress",
              "type": "address"
            },
            {
              "internalType": "uint256",
              "name": "amountStaked",
              "type": "uint256"
            },
            {
              "internalType": "uint256",
              "name": "rewardDebt",
              "type": "uint256"
            },
            {
              "internalType": "uint256",
              "name": "rewardPending",
              "type": "uint256"
            },
            {
              "internalType": "uint256",
              "name": "stakingTimestamp",
              "type": "uint256"
            },
            {
              "internalType": "bool",
              "name": "isActive",
              "type": "bool"
            }
          ],
          "internalType": "struct StakingPool.Staker[]",
          "name": "",
          "type": "tuple[]"
        }
      ],
      "stateMutability": "view",
      "type": "function"
    },
    {
      "inputs": [],
      "name": "getInActiveStakers",
      "outputs": [
        {
          "components": [
            {
              "internalType": "uint256",
              "name": "stakerId",
              "type": "uint256"
            },
            {
              "internalType": "address",
              "name": "stakerAddress",
              "type": "address"
            },
            {
              "internalType": "uint256",
              "name": "amountStaked",
              "type": "uint256"
            },
            {
              "internalType": "uint256",
              "name": "rewardDebt",
              "type": "uint256"
            },
            {
              "internalType": "uint256",
              "name": "rewardPending",
              "type": "uint256"
            },
            {
              "internalType": "uint256",
              "name": "stakingTimestamp",
              "type": "uint256"
            },
            {
              "internalType": "bool",
              "name": "isActive",
              "type": "bool"
            }
          ],
          "internalType": "struct StakingPool.Staker[]",
          "name": "",
          "type": "tuple[]"
        }
      ],
      "stateMutability": "view",
      "type": "function"
    },
    {
      "inputs": [
        {
          "internalType": "address",
          "name": "_stakerAddress",
          "type": "address"
        }
      ],
      "name": "getStakerDetailsByAddress",
      "outputs": [
        {
          "internalType": "uint256",
          "name": "",
          "type": "uint256"
        },
        {
          "internalType": "uint256",
          "name": "",
          "type": "uint256"
        },
        {
          "internalType": "uint256",
          "name": "",
          "type": "uint256"
        },
        {
          "internalType": "uint256",
          "name": "",
          "type": "uint256"
        },
        {
          "internalType": "bool",
          "name": "",
          "type": "bool"
        }
      ],
      "stateMutability": "view",
      "type": "function"
    },
    {
      "inputs": [
        {
          "internalType": "uint256",
          "name": "_stakerId",
          "type": "uint256"
        }
      ],
      "name": "getStakerDetailsById",
      "outputs": [
        {
          "internalType": "uint256",
          "name": "",
          "type": "uint256"
        },
        {
          "internalType": "uint256",
          "name": "",
          "type": "uint256"
        },
        {
          "internalType": "uint256",
          "name": "",
          "type": "uint256"
        },
        {
          "internalType": "uint256",
          "name": "",
          "type": "uint256"
        },
        {
          "internalType": "bool",
          "name": "",
          "type": "bool"
        }
      ],
      "stateMutability": "view",
      "type": "function"
    },
    {
      "inputs": [
        {
          "internalType": "address",
          "name": "_staker",
          "type": "address"
        }
      ],
      "name": "getStakerId",
      "outputs": [
        {
          "internalType": "uint256",
          "name": "",
          "type": "uint256"
        }
      ],
      "stateMutability": "view",
      "type": "function"
    },
    {
      "inputs": [],
      "name": "lockinDuration",
      "outputs": [
        {
          "internalType": "uint256",
          "name": "",
          "type": "uint256"
        }
      ],
      "stateMutability": "view",
      "type": "function"
    },
    {
      "inputs": [],
      "name": "owner",
      "outputs": [
        {
          "internalType": "address",
          "name": "",
          "type": "address"
        }
      ],
      "stateMutability": "view",
      "type": "function"
    },
    {
      "inputs": [],
      "name": "poolDuration",
      "outputs": [
        {
          "internalType": "uint256",
          "name": "",
          "type": "uint256"
        }
      ],
      "stateMutability": "view",
      "type": "function"
    },
    {
      "inputs": [],
      "name": "poolStarted",
      "outputs": [
        {
          "internalType": "bool",
          "name": "",
          "type": "bool"
        }
      ],
      "stateMutability": "view",
      "type": "function"
    },
    {
      "inputs": [],
      "name": "renounceOwnership",
      "outputs": [],
      "stateMutability": "nonpayable",
      "type": "function"
    },
    {
      "inputs": [
        {
          "internalType": "uint256",
          "name": "_amount",
          "type": "uint256"
        }
      ],
      "name": "stake",
      "outputs": [],
      "stateMutability": "nonpayable",
      "type": "function"
    },
    {
      "inputs": [],
      "name": "stakingToken",
      "outputs": [
        {
          "internalType": "contract IERC20",
          "name": "",
          "type": "address"
        }
      ],
      "stateMutability": "view",
      "type": "function"
    },
    {
      "inputs": [],
      "name": "startTime",
      "outputs": [
        {
          "internalType": "uint256",
          "name": "",
          "type": "uint256"
        }
      ],
      "stateMutability": "view",
      "type": "function"
    },
    {
      "inputs": [],
      "name": "totalDistributionAmount",
      "outputs": [
        {
          "internalType": "uint256",
          "name": "",
          "type": "uint256"
        }
      ],
      "stateMutability": "view",
      "type": "function"
    },
    {
      "inputs": [],
      "name": "totalPoolAmountLeft",
      "outputs": [
        {
          "internalType": "uint256",
          "name": "",
          "type": "uint256"
        }
      ],
      "stateMutability": "view",
      "type": "function"
    },
    {
      "inputs": [],
      "name": "totalRewardClaimed",
      "outputs": [
        {
          "internalType": "uint256",
          "name": "",
          "type": "uint256"
        }
      ],
      "stateMutability": "view",
      "type": "function"
    },
    {
      "inputs": [],
      "name": "totalStaked",
      "outputs": [
        {
          "internalType": "uint256",
          "name": "",
          "type": "uint256"
        }
      ],
      "stateMutability": "view",
      "type": "function"
    },
    {
      "inputs": [],
      "name": "totalTokensStaked",
      "outputs": [
        {
          "internalType": "uint256",
          "name": "",
          "type": "uint256"
        }
      ],
      "stateMutability": "view",
      "type": "function"
    },
    {
      "inputs": [
        {
          "internalType": "address",
          "name": "newOwner",
          "type": "address"
        }
      ],
      "name": "transferOwnership",
      "outputs": [],
      "stateMutability": "nonpayable",
      "type": "function"
    },
    {
      "inputs": [
        {
          "internalType": "uint256",
          "name": "_stakerId",
          "type": "uint256"
        }
      ],
      "name": "unstake",
      "outputs": [],
      "stateMutability": "nonpayable",
      "type": "function"
    }
  ],
  "bytecode": "0x608060405234801561001057600080fd5b5061001a33610023565b60018055610073565b600080546001600160a01b038381166001600160a01b0319831681178455604051919092169283917f8be0079c531659141344cd1fd0a4f28419497f9722a3daafe3b4186f6b6457e09190a35050565b611617806100826000396000f3fe608060405234801561001057600080fd5b50600436106101735760003560e01c8063817b1cd2116100de578063b0e31b2d11610097578063d519e8ee11610071578063d519e8ee1461034a578063dc905fa314610390578063e3332f9314610398578063f2fde38b146103b557600080fd5b8063b0e31b2d14610326578063b3e76f8b1461032e578063d2d7231f1461033757600080fd5b8063817b1cd2146102d657806388d7b396146102df5780638da5cb5b146102e7578063922d3e4c146102f85780639fb82db91461030b578063a694fc3a1461031357600080fd5b80636022a485116101305780636022a48514610260578063646ac468146102895780636f83f6a214610291578063715018a61461029a57806372f702f3146102a257806378e97925146102cd57600080fd5b80630962ef79146101785780631d5c30d01461018d5780632c4e6336146101a95780632e17de781461022f57806335c530dd146102425780633916e0411461024b575b600080fd5b61018b6101863660046113e8565b6103c8565b005b61019660065481565b6040519081526020015b60405180910390f35b6102056101b736600461141d565b6001600160a01b03166000908152600c60209081526040808320548352600b90915290206002810154600482015460038301546005840154600690940154929491939092909160ff90911690565b6040805195865260208601949094529284019190915260608301521515608082015260a0016101a0565b61018b61023d3660046113e8565b610510565b61019660055481565b6102536106ea565b6040516101a09190611438565b61019661026e36600461141d565b6001600160a01b03166000908152600c602052604090205490565b6101966108a4565b61019660095481565b61018b6108de565b6003546102b5906001600160a01b031681565b6040516001600160a01b0390911681526020016101a0565b61019660075481565b61019660085481565b6102536108f2565b6000546001600160a01b03166102b5565b61018b6103063660046114c5565b610a19565b610253610c68565b61018b6103213660046113e8565b610e17565b600854610196565b61019660045481565b6101966103453660046113e8565b61109d565b6102056103583660046113e8565b6000908152600b602052604090206002810154600482015460038301546005840154600690940154929491939092909160ff90911690565b61019661115c565b600a546103a59060ff1681565b60405190151581526020016101a0565b61018b6103c336600461141d565b61117a565b6103d06111f0565b6103d981611249565b6000818152600b6020526040902060040154806104335760405162461bcd60e51b81526020600482015260136024820152724e6f207265776172647320746f20636c61696d60681b60448201526064015b60405180910390fd5b60035460405163a9059cbb60e01b8152336004820152602481018390526001600160a01b039091169063a9059cbb906044016020604051808303816000875af1158015610484573d6000803e3d6000fd5b505050506040513d601f19601f820116820180604052508101906104a891906114fe565b506000828152600b60205260408120600401556009546104c890826112bd565b600955604051818152339083907f24b5efa61dd1cfc659205a97fb8ed868f3cb8c81922bab2b96423e5de1de2cb7906020015b60405180910390a35061050d60018055565b50565b6105186111f0565b6006546000828152600b6020526040902060050154829161053991906112bd565b4210156105885760405162461bcd60e51b815260206004820152601e60248201527f4c6f636b2d696e206475726174696f6e206e6f7420636f6d706c657465640000604482015260640161042a565b6000828152600b60205260409020600201546105dd5760405162461bcd60e51b81526020600482015260146024820152734e6f20746f6b656e7320746f20756e7374616b6560601b604482015260640161042a565b6105e682611249565b6000828152600b60205260409081902060020154600354915163a9059cbb60e01b81523360048201526024810182905290916001600160a01b03169063a9059cbb906044016020604051808303816000875af115801561064a573d6000803e3d6000fd5b505050506040513d601f19601f8201168201806040525081019061066e91906114fe565b5060085461067c90826112d2565b6008556000838152600b602052604080822060028101929092556006909101805460ff1916905551339084907f37375b03d8924bd8f076f11f8411b9962aa5c02fb489021507bc6bb6f850e365906106d79085815260200190565b60405180910390a3505061050d60018055565b60606000805b60025481101561074a57600b600061070983600161153d565b8152602081019190915260400160009081206006015460ff1615159003610738578161073481611550565b9250505b8061074281611550565b9150506106f0565b5060008167ffffffffffffffff81111561076657610766611569565b60405190808252806020026020018201604052801561079f57816020015b61078c6113a0565b8152602001906001900390816107845790505b5090506000805b60025481101561089b57600b60006107bf83600161153d565b8152602081019190915260400160009081206006015460ff161515900361088957600b60006107ef83600161153d565b81526020808201929092526040908101600020815160e0810183528154815260018201546001600160a01b0316938101939093526002810154918301919091526003810154606083015260048101546080830152600581015460a08301526006015460ff16151560c0820152835184908490811061086f5761086f61157f565b6020026020010181905250818061088590611550565b9250505b8061089381611550565b9150506107a6565b50909392505050565b60006005546000036108b65750600090565b6005546000906108c890610e106112de565b6004549091506108d890826112de565b91505090565b6108e66112ea565b6108f06000611344565b565b606060006108ff60025490565b67ffffffffffffffff81111561091757610917611569565b60405190808252806020026020018201604052801561095057816020015b61093d6113a0565b8152602001906001900390816109355790505b50905060005b600254811015610a13576000600b8161097084600161153d565b81526020808201929092526040908101600020815160e0810183528154815260018201546001600160a01b0316938101939093526002810154918301919091526003810154606083015260048101546080830152600581015460a0830152600681015460ff16151560c083015284519092508490849081106109f4576109f461157f565b6020026020010181905250508080610a0b90611550565b915050610956565b50919050565b600a5460ff1615610a635760405162461bcd60e51b8152602060048201526014602482015273141bdbdb08185b1c9958591e4818dc99585d195960621b604482015260640161042a565b6001600160a01b038416610ab95760405162461bcd60e51b815260206004820152601860248201527f41646472657373206d757374206e6f74206265206e756c6c0000000000000000604482015260640161042a565b60008311610b095760405162461bcd60e51b815260206004820181905260248201527f416d6f756e74206d7573742062652067726561746572207468616e207a65726f604482015260640161042a565b60008211610b645760405162461bcd60e51b815260206004820152602260248201527f4475726174696f6e206d7573742062652067726561746572207468616e207a65604482015261726f60f01b606482015260840161042a565b60008111610bc55760405162461bcd60e51b815260206004820152602860248201527f4c6f636b496e4475726174696f6e206d7573742062652067726561746572207460448201526768616e207a65726f60c01b606482015260840161042a565b600380546001600160a01b0319166001600160a01b0386161790556004839055610bf28262015180611394565b600555610c028162015180611394565b60065542600755600a805460ff1916600117905560408051848152602081018490529081018290526001600160a01b038516907fc8e774967d7f45e5814dbb800335ed47014999568397f08e79b0f322047f743f9060600160405180910390a250505050565b60606000805b600254811015610cc757600b6000610c8783600161153d565b815260208101919091526040016000206006015460ff161515600103610cb55781610cb181611550565b9250505b80610cbf81611550565b915050610c6e565b5060008167ffffffffffffffff811115610ce357610ce3611569565b604051908082528060200260200182016040528015610d1c57816020015b610d096113a0565b815260200190600190039081610d015790505b5090506000805b60025481101561089b57600b6000610d3c83600161153d565b815260208101919091526040016000206006015460ff161515600103610e0557600b6000610d6b83600161153d565b81526020808201929092526040908101600020815160e0810183528154815260018201546001600160a01b0316938101939093526002810154918301919091526003810154606083015260048101546080830152600581015460a08301526006015460ff16151560c08201528351849084908110610deb57610deb61157f565b60200260200101819052508180610e0190611550565b9250505b80610e0f81611550565b915050610d23565b610e1f6111f0565b600a5460ff16610e715760405162461bcd60e51b815260206004820152601c60248201527f5374616b696e6720706f6f6c20686173206e6f74207374617274656400000000604482015260640161042a565b600554600754610e80916112bd565b421115610ec85760405162461bcd60e51b815260206004820152601660248201527514dd185ada5b99c81c1bdbdb081a185cc8195b99195960521b604482015260640161042a565b60008111610f235760405162461bcd60e51b815260206004820152602260248201527f416d6f756e742073686f756c642062652067726561746572207468616e207a65604482015261726f60f01b606482015260840161042a565b610f31600280546001019055565b6000610f3c60025490565b6003546040516323b872dd60e01b8152336004820152306024820152604481018590529192506001600160a01b0316906323b872dd906064016020604051808303816000875af1158015610f94573d6000803e3d6000fd5b505050506040513d601f19601f82011682018060405250810190610fb891906114fe565b506000818152600b602052604090206006015460ff16610fef576000818152600b60205260409020600601805460ff191660011790555b610ff881611249565b6000818152600b602052604090206002015461101490836112bd565b6000828152600b602052604090206002808201929092558154815542600582015560010180546001600160a01b0319163317905554336000908152600c602052604090205560085461106690836112bd565b600855604051828152339082907f18dcd430020e4d4899772fd94a8b40451dc5044dfb70bc46b532eeae431c864f906020016104fb565b60006008546000036110b157506000919050565b6000828152600b60205260408120600501546110ce9042906112d2565b905060006110f66110ed620151806005546112de90919063ffffffff16565b600454906112de565b6008546000868152600b60205260408120600201549293509161112c919061112690670de0b6b3a7640000611394565b906112de565b9050611153670de0b6b3a764000061112662015180818761114d8888611394565b90611394565b95945050505050565b60006111756009546004546112d290919063ffffffff16565b905090565b6111826112ea565b6001600160a01b0381166111e75760405162461bcd60e51b815260206004820152602660248201527f4f776e61626c653a206e6577206f776e657220697320746865207a65726f206160448201526564647265737360d01b606482015260840161042a565b61050d81611344565b6002600154036112425760405162461bcd60e51b815260206004820152601f60248201527f5265656e7472616e637947756172643a207265656e7472616e742063616c6c00604482015260640161042a565b6002600155565b6008546000036112565750565b60006112618261109d565b6000838152600b602052604090206004015490915061128090826112bd565b6000838152600b602052604090206004810191909155600301546112a490826112bd565b6000928352600b60205260409092206003019190915550565b60006112c9828461153d565b90505b92915050565b60006112c98284611595565b60006112c982846115a8565b6000546001600160a01b031633146108f05760405162461bcd60e51b815260206004820181905260248201527f4f776e61626c653a2063616c6c6572206973206e6f7420746865206f776e6572604482015260640161042a565b600080546001600160a01b038381166001600160a01b0319831681178455604051919092169283917f8be0079c531659141344cd1fd0a4f28419497f9722a3daafe3b4186f6b6457e09190a35050565b60006112c982846115ca565b6040518060e001604052806000815260200160006001600160a01b03168152602001600081526020016000815260200160008152602001600081526020016000151581525090565b6000602082840312156113fa57600080fd5b5035919050565b80356001600160a01b038116811461141857600080fd5b919050565b60006020828403121561142f57600080fd5b6112c982611401565b602080825282518282018190526000919060409081850190868401855b828110156114b857815180518552868101516001600160a01b0316878601528581015186860152606080820151908601526080808201519086015260a0808201519086015260c09081015115159085015260e09093019290850190600101611455565b5091979650505050505050565b600080600080608085870312156114db57600080fd5b6114e485611401565b966020860135965060408601359560600135945092505050565b60006020828403121561151057600080fd5b8151801515811461152057600080fd5b9392505050565b634e487b7160e01b600052601160045260246000fd5b808201808211156112cc576112cc611527565b60006001820161156257611562611527565b5060010190565b634e487b7160e01b600052604160045260246000fd5b634e487b7160e01b600052603260045260246000fd5b818103818111156112cc576112cc611527565b6000826115c557634e487b7160e01b600052601260045260246000fd5b500490565b80820281158282048414176112cc576112cc61152756fea2646970667358221220bf5b1691520f3a0401579c29015a034407cef20397b91f91a712f1915e00fafe64736f6c63430008140033",
  "linkReferences": {},
  "deployedLinkReferences": {}
}